{
  "contractName": "Dobcha",
  "abi": [
    {
      "constant": true,
      "inputs": [],
      "name": "owner",
      "outputs": [
        {
          "name": "",
          "type": "address"
        }
      ],
      "payable": false,
      "stateMutability": "view",
      "type": "function"
    },
    {
      "inputs": [],
      "payable": false,
      "stateMutability": "nonpayable",
      "type": "constructor"
    },
    {
      "constant": true,
      "inputs": [],
      "name": "getSomeValue",
      "outputs": [
        {
          "name": "value",
          "type": "uint256"
        }
      ],
      "payable": false,
      "stateMutability": "pure",
      "type": "function"
    }
  ],
  "bytecode": "0x608060405234801561001057600080fd5b50336000806101000a81548173ffffffffffffffffffffffffffffffffffffffff021916908373ffffffffffffffffffffffffffffffffffffffff160217905550610124806100606000396000f3006080604052600436106049576000357c0100000000000000000000000000000000000000000000000000000000900463ffffffff1680638da5cb5b14604e578063a40674b71460a2575b600080fd5b348015605957600080fd5b50606060ca565b604051808273ffffffffffffffffffffffffffffffffffffffff1673ffffffffffffffffffffffffffffffffffffffff16815260200191505060405180910390f35b34801560ad57600080fd5b5060b460ef565b6040518082815260200191505060405180910390f35b6000809054906101000a900473ffffffffffffffffffffffffffffffffffffffff1681565b600060059050905600a165627a7a723058203d7137ef47dba300f1ac9d91a3074ea699b7793e19591e3a140b5c3335565f370029",
  "source": "pragma solidity  >=0.4.23 <0.9.0;\n\ncontract Dobcha{\n    address public owner; //public으로 선언하여 자동 getter 생성\n\n    constructor() public{\n        owner = msg.sender;\n    }\n\n    function getSomeValue() public pure returns (uint256 value){\n        return 5;\n    }\n}",
  "sourcePath": "/Users/mac/Desktop/Dobcha-SC/dopcha/contracts/Dobcha.sol",
  "compiler": {
    "name": "solc",
    "version": "0.4.25+commit.59dbf8f1.Emscripten.clang"
  },
  "schemaVersion": "2.0.2",
  "updatedAt": "2021-11-11T10:54:22.767Z"
}