{
  "contractName": "Dobcha_book",
  "abi": [
    {
      "constant": true,
      "inputs": [],
      "name": "owner",
      "outputs": [
        {
          "name": "",
          "type": "address"
        }
      ],
      "payable": false,
      "stateMutability": "view",
      "type": "function"
    },
    {
      "constant": true,
      "inputs": [],
      "name": "Aaccount",
      "outputs": [
        {
          "name": "",
          "type": "address"
        }
      ],
      "payable": false,
      "stateMutability": "view",
      "type": "function"
    },
    {
      "inputs": [
        {
          "name": "_owner",
          "type": "address"
        },
        {
          "name": "_Aaccount",
          "type": "address"
        }
      ],
      "payable": false,
      "stateMutability": "nonpayable",
      "type": "constructor"
    },
    {
      "constant": false,
      "inputs": [],
      "name": "donation",
      "outputs": [],
      "payable": true,
      "stateMutability": "payable",
      "type": "function"
    },
    {
      "constant": false,
      "inputs": [],
      "name": "dobcha",
      "outputs": [],
      "payable": false,
      "stateMutability": "nonpayable",
      "type": "function"
    }
  ],
  "bytecode": "0x608060405234801561001057600080fd5b5060405160408061036a8339810180604052810190808051906020019092919080519060200190929190505050816000806101000a81548173ffffffffffffffffffffffffffffffffffffffff021916908373ffffffffffffffffffffffffffffffffffffffff16021790555080600160006101000a81548173ffffffffffffffffffffffffffffffffffffffff021916908373ffffffffffffffffffffffffffffffffffffffff160217905550505061029b806100cf6000396000f300608060405260043610610062576000357c0100000000000000000000000000000000000000000000000000000000900463ffffffff16806340da8340146100675780638da5cb5b1461007e5780638edeb15d146100d5578063c0473046146100df575b600080fd5b34801561007357600080fd5b5061007c610136565b005b34801561008a57600080fd5b50610093610213565b604051808273ffffffffffffffffffffffffffffffffffffffff1673ffffffffffffffffffffffffffffffffffffffff16815260200191505060405180910390f35b6100dd610238565b005b3480156100eb57600080fd5b506100f4610249565b604051808273ffffffffffffffffffffffffffffffffffffffff1673ffffffffffffffffffffffffffffffffffffffff16815260200191505060405180910390f35b6000809054906101000a900473ffffffffffffffffffffffffffffffffffffffff1673ffffffffffffffffffffffffffffffffffffffff163373ffffffffffffffffffffffffffffffffffffffff1614151561019157600080fd5b600160009054906101000a900473ffffffffffffffffffffffffffffffffffffffff1673ffffffffffffffffffffffffffffffffffffffff166108fc3073ffffffffffffffffffffffffffffffffffffffff16319081150290604051600060405180830381858888f19350505050158015610210573d6000803e3d6000fd5b50565b6000809054906101000a900473ffffffffffffffffffffffffffffffffffffffff1681565b60003411151561024757600080fd5b565b600160009054906101000a900473ffffffffffffffffffffffffffffffffffffffff16815600a165627a7a72305820cfeeeb6411f30063dc583308726836c8d831841eca63ecdab57d1a1020bda3d30029",
  "source": "// pragma solidity  >=0.4.1 <0.9.0;\n// //pragma solidity  ^0.4.21;\n\n\n// contract Dobcha_book {\n\n//     address public owner; //기부자 계좌 주소 선언\n//     // address public D_account; //돕차 계좌 주소\n//     // address public A_account; // 기부단체 계좌 주소\n//     mapping(address => uint256) public wallet;\n\n//     event Transfer(address indexed owner, address indexed D_account, uint256 value);\n//     event Transfer2(address indexed D_account, address indexed A_account, uint256 value);\n\n  \n\n//     // constructor () public{\n//     //     owner = msg.sender;\n//     //     // D_account = msg.sender;\n//     // }\n//     modifier cost(uint _amount){\n//         require(msg.value >= _amount, \"Please send at least 1 ETH.\");\n//         _;\n//     }\n\n//     function transfer(address D_account, uint256 _amount) payable cost(1 ether) public {\n//         msg.sender == owner;\n//         if (wallet[msg.sender] < _amount) revert();\n//         else{\n//             wallet[msg.sender] -= _amount; //기부자 계좌는 보낸 금액만큼 차감됨\n//             wallet[D_account] += _amount; //돕차계좌는 받은 금액만큼 추가됨\n//             emit Transfer(msg.sender, D_account, _amount);//기부자가 돕차계좌에 보낸 금액이 기록됨\n//         }    \n//     }//기부자 => 돕차\n\n\n//     // 시간 설정 하기....\n\n\n//     // function transfer2(address A_account1, uint256 _amount)  public {\n//     //     msg.sender == D_account;\n//     //     if (wallet[msg.sender] < _amount) revert();\n//     //     else{\n//     //         wallet[msg.sender] -= _amount; //돕차 계좌는 보낸 금액만큼 차감됨\n//     //         wallet[A_account1] += _amount; //기부단체 계좌는 받은 금액만큼 추가됨\n//     //         emit Transfer2(msg.sender, A_account1, _amount);//돕차계좌에서 기부단체 계좌에 보낸 금액이 기록됨\n//     //     }    \n//     // }//돕차 => 기부 단체\n\n\n// }\n pragma solidity  >=0.4.4 <0.9.0;\n\ncontract Dobcha_book {\n    address public owner;\n    address public Aaccount;\n    //address public Daccount;\n\n    constructor (address _owner, address _Aaccount) public {\n        owner = _owner;\n        Aaccount = _Aaccount;\n       // Daccount = _Daccount;\n    }\n\n    function donation() public payable {\n        require(msg.value > 0);\n    }//기부자가 0 ETH 보다 큰 값을 기부\n    \n    //  기부된 금액은 스마트 컨트랙트 상에 보관되었음\n\n    //시간 설정~\n\n    function dobcha() public {\n        require(msg.sender == owner);\n        Aaccount.transfer(address(this).balance);\n    }\n    // 돈을 보내는 사람이 기부자인지 확인\n   // 맞으면 기부 단체 주소로 전송됨\n}\n   \n\n    \n\n    \n\n\n\n\n\n",
  "sourcePath": "/Users/mac/Desktop/Dobcha-SC/dopcha/contracts/Dobcha_book.sol",
  "compiler": {
    "name": "solc",
    "version": "0.4.25+commit.59dbf8f1.Emscripten.clang"
  },
  "schemaVersion": "2.0.2",
  "updatedAt": "2021-11-14T10:33:01.936Z"
}