{
  "contractName": "Dobcha_book",
  "abi": [
    {
      "constant": true,
      "inputs": [],
      "name": "owner",
      "outputs": [
        {
          "name": "",
          "type": "address"
        }
      ],
      "payable": false,
      "stateMutability": "view",
      "type": "function"
    },
    {
      "constant": true,
      "inputs": [
        {
          "name": "",
          "type": "address"
        }
      ],
      "name": "wallet",
      "outputs": [
        {
          "name": "",
          "type": "uint256"
        }
      ],
      "payable": false,
      "stateMutability": "view",
      "type": "function"
    },
    {
      "anonymous": false,
      "inputs": [
        {
          "indexed": true,
          "name": "owner",
          "type": "address"
        },
        {
          "indexed": true,
          "name": "D_account",
          "type": "address"
        },
        {
          "indexed": false,
          "name": "value",
          "type": "uint256"
        }
      ],
      "name": "Transfer",
      "type": "event"
    },
    {
      "anonymous": false,
      "inputs": [
        {
          "indexed": true,
          "name": "D_account",
          "type": "address"
        },
        {
          "indexed": true,
          "name": "A_account",
          "type": "address"
        },
        {
          "indexed": false,
          "name": "value",
          "type": "uint256"
        }
      ],
      "name": "Transfer2",
      "type": "event"
    },
    {
      "constant": false,
      "inputs": [
        {
          "name": "D_account",
          "type": "address"
        },
        {
          "name": "_amount",
          "type": "uint256"
        }
      ],
      "name": "transfer",
      "outputs": [],
      "payable": true,
      "stateMutability": "payable",
      "type": "function"
    }
  ],
  "bytecode": "0x608060405234801561001057600080fd5b50610391806100206000396000f300608060405260043610610057576000357c0100000000000000000000000000000000000000000000000000000000900463ffffffff1680638da5cb5b1461005c578063a56cc439146100b3578063a9059cbb1461010a575b600080fd5b34801561006857600080fd5b5061007161014a565b604051808273ffffffffffffffffffffffffffffffffffffffff1673ffffffffffffffffffffffffffffffffffffffff16815260200191505060405180910390f35b3480156100bf57600080fd5b506100f4600480360381019080803573ffffffffffffffffffffffffffffffffffffffff16906020019092919050505061016f565b6040518082815260200191505060405180910390f35b610148600480360381019080803573ffffffffffffffffffffffffffffffffffffffff16906020019092919080359060200190929190505050610187565b005b6000809054906101000a900473ffffffffffffffffffffffffffffffffffffffff1681565b60016020528060005260406000206000915090505481565b670de0b6b3a7640000803410151515610208576040517f08c379a000000000000000000000000000000000000000000000000000000000815260040180806020018281038252601b8152602001807f506c656173652073656e64206174206c656173742031204554482e000000000081525060200191505060405180910390fd5b6000809054906101000a90505081600160003373ffffffffffffffffffffffffffffffffffffffff1673ffffffffffffffffffffffffffffffffffffffff16815260200190815260200160002054101561026157600080fd5b81600160003373ffffffffffffffffffffffffffffffffffffffff1673ffffffffffffffffffffffffffffffffffffffff1681526020019081526020016000206000828254039250508190555081600160008573ffffffffffffffffffffffffffffffffffffffff1673ffffffffffffffffffffffffffffffffffffffff168152602001908152602001600020600082825401925050819055508273ffffffffffffffffffffffffffffffffffffffff163373ffffffffffffffffffffffffffffffffffffffff167fddf252ad1be2c89b69c2b068fc378daa952ba7f163c4a11628f55a4df523b3ef846040518082815260200191505060405180910390a35050505600a165627a7a72305820ef7b2cf235bafa310c98c33740e39d84db5e717cabd33eea99801e4f39bca7c00029",
  "source": "pragma solidity  >=0.4.1 <0.9.0;\n//pragma solidity  ^0.4.21;\n\n\ncontract Dobcha_book {\n\n    address public owner; //기부자 계좌 주소 선언\n    // address public D_account; //돕차 계좌 주소\n    // address public A_account; // 기부단체 계좌 주소\n    mapping(address => uint256) public wallet;\n\n    event Transfer(address indexed owner, address indexed D_account, uint256 value);\n    event Transfer2(address indexed D_account, address indexed A_account, uint256 value);\n\n  \n\n    // constructor () public{\n    //     owner = msg.sender;\n    //     // D_account = msg.sender;\n    // }\n    modifier cost(uint _amount){\n        require(msg.value >= _amount, \"Please send at least 1 ETH.\");\n        _;\n    }\n\n    function transfer(address D_account, uint256 _amount) payable cost(1 ether) public {\n        msg.sender == owner;\n        if (wallet[msg.sender] < _amount) revert();\n        else{\n            wallet[msg.sender] -= _amount; //기부자 계좌는 보낸 금액만큼 차감됨\n            wallet[D_account] += _amount; //돕차계좌는 받은 금액만큼 추가됨\n            emit Transfer(msg.sender, D_account, _amount);//기부자가 돕차계좌에 보낸 금액이 기록됨\n        }    \n    }//기부자 => 돕차\n\n\n    // 시간 설정 하기....\n\n\n    // function transfer2(address A_account1, uint256 _amount)  public {\n    //     msg.sender == D_account;\n    //     if (wallet[msg.sender] < _amount) revert();\n    //     else{\n    //         wallet[msg.sender] -= _amount; //돕차 계좌는 보낸 금액만큼 차감됨\n    //         wallet[A_account1] += _amount; //기부단체 계좌는 받은 금액만큼 추가됨\n    //         emit Transfer2(msg.sender, A_account1, _amount);//돕차계좌에서 기부단체 계좌에 보낸 금액이 기록됨\n    //     }    \n    // }//돕차 => 기부 단체\n\n\n}\n   \n\n    \n\n    \n\n\n\n\n\n// }",
  "sourcePath": "/Users/mac/Desktop/Dobcha-SC/dopcha/contracts/Dobcha_book.sol",
  "compiler": {
    "name": "solc",
    "version": "0.4.25+commit.59dbf8f1.Emscripten.clang"
  },
  "schemaVersion": "2.0.2",
  "updatedAt": "2021-11-14T06:56:48.055Z"
}